:100000000C9434000C943E000C943E000C943E0082
:100010000C943E000C943E000C943E000C943E0068
:100020000C943E000C943E000C943E000C945A003C
:100030000C943E000C943E000C943E000C943E0048
:100040000C943E000C943E000C943E000C943E0038
:100050000C943E000C946E000C943E000C943E00F8
:100060000C943E000C943E0011241FBECFEFD8E04C
:10007000DEBFCDBF0E948E000C9491000C94000056
:1000800080ED97E0909389008093880083E08093CF
:10009000810092E090936F0084B9789480E480931B
:1000A0007C00EAE7F0E089E8808317B8808180640B
:1000B000808308951F921FB61F9211248F939F93E0
:1000C00085B192E0892785B910928500109284004D
:1000D0009F918F911F901FBE1F9018958F938FB780
:1000E0008F939F93EF93FF93809178009091790085
:1000F000909389008093880081EE94E00197F1F756
:1001000000C00000EAE7F0E0808180648083FF9116
:10011000EF919F918F918FBF8F9118950E94400012
:06012000FFCFF894FFCFB1
:00000001FF
