:100000000C9434000C9446000C9446000C9446006A
:100010000C9446000C9446000C9446000C94460048
:100020000C9446000C9446000C9446000C94460038
:100030000C9446000C9446000C9446000C94460028
:100040000C9446000C9446000C9446000C94460018
:100050000C9446000C9474000C9446000C944600DA
:100060000C9446000C94460011241FBECFEFD8E03C
:10007000DEBFCDBF21E0A0E0B1E001C01D92A23003
:10008000B207E1F70E94B2000C94C1000C9400008A
:1000900084B5826484BD85B5856085BDEEE6F0E0FB
:1000A000808182608083E0EBF0E0808182648083E5
:1000B000E1EBF0E080818760808382E080937000D4
:1000C00088E084B980E48AB917B8ECE7F0E0808171
:1000D00080668083EAE7F0E080818D68808380819C
:1000E00080648083789408950F920FB60F921F92C8
:1000F00011246F937F938F939F9380917C008093C3
:100100000001809100018F7080930001809179003F
:10011000809301018091000181111AC08091010139
:1001200065E00E94B5008093B30080917C008F5FF2
:1001300080937C0080917A00806480937A009F9104
:100140008F917F916F911F900F900FBE0F90189518
:100150008091010165E00E94B50087BD80917C001F
:10016000807FE6CF0E944800FFCF991B79E004C052
:10017000991F961708F0961B881F7A95C9F78095E6
:060180000895F894FFCF82
:00000001FF
