:100000000C9434000C9451000C9451000C94510049
:100010000C9451000C9451000C9451000C9451001C
:100020000C9451000C9451000C9451000C948300DA
:100030000C9451000C9451000C9473000C945100DA
:100040000C9451000C9451000C9451000C945100EC
:100050000C9451000C9451000C9451000C945100DC
:100060000C9451000C94510011241FBECFEFD8E026
:10007000DEBFCDBF11E0A0E0B1E0E6E3F1E002C0F9
:1000800005900D92A230B107D9F721E0A2E0B1E0CE
:1000900001C01D92A330B207E1F70E9493000C94B7
:1000A00099000C9400009FE097BD84B5826084BDE8
:1000B00085B5856085BDEEE6F0E080818260808355
:1000C00028E833E13093890020938800E1E8F0E0EC
:1000D00080818D608083EFE6F0E0808182608083A4
:1000E0009AB9789408958F938FB78F939F93809147
:1000F000020190910001890F809302019F918F91DD
:100100008FBF8F9118958F938FB78F938091000138
:10011000813039F48FEF809300018F918FBF8F91E1
:10012000189581E0F8CF0E945300809102018BB9AD
:06013000FCCFF894FFCFA4
:020136000100C6
:00000001FF
